{
  "_format": "hh-sol-artifact-1",
  "contractName": "SkillMint",
  "sourceName": "contracts/SkillMint.sol",
  "abi": [
    {
      "inputs": [],
      "stateMutability": "nonpayable",
      "type": "constructor"
    },
    {
      "anonymous": false,
      "inputs": [
        {
          "indexed": false,
          "internalType": "uint256",
          "name": "courseId",
          "type": "uint256"
        },
        {
          "indexed": false,
          "internalType": "string",
          "name": "courseName",
          "type": "string"
        },
        {
          "indexed": false,
          "internalType": "uint256",
          "name": "price",
          "type": "uint256"
        },
        {
          "indexed": false,
          "internalType": "address",
          "name": "instructor",
          "type": "address"
        }
      ],
      "name": "CourseAdded",
      "type": "event"
    },
    {
      "anonymous": false,
      "inputs": [
        {
          "indexed": true,
          "internalType": "address",
          "name": "buyer",
          "type": "address"
        },
        {
          "indexed": false,
          "internalType": "uint256",
          "name": "courseId",
          "type": "uint256"
        }
      ],
      "name": "CoursePurchased",
      "type": "event"
    },
    {
      "inputs": [
        {
          "internalType": "string",
          "name": "_name",
          "type": "string"
        },
        {
          "internalType": "uint256",
          "name": "_price",
          "type": "uint256"
        },
        {
          "internalType": "address payable",
          "name": "_instructor",
          "type": "address"
        }
      ],
      "name": "addCourse",
      "outputs": [],
      "stateMutability": "nonpayable",
      "type": "function"
    },
    {
      "inputs": [
        {
          "internalType": "address",
          "name": "",
          "type": "address"
        },
        {
          "internalType": "uint256",
          "name": "",
          "type": "uint256"
        }
      ],
      "name": "courseAccess",
      "outputs": [
        {
          "internalType": "bool",
          "name": "",
          "type": "bool"
        }
      ],
      "stateMutability": "view",
      "type": "function"
    },
    {
      "inputs": [],
      "name": "courseCounter",
      "outputs": [
        {
          "internalType": "uint256",
          "name": "",
          "type": "uint256"
        }
      ],
      "stateMutability": "view",
      "type": "function"
    },
    {
      "inputs": [
        {
          "internalType": "uint256",
          "name": "",
          "type": "uint256"
        }
      ],
      "name": "courses",
      "outputs": [
        {
          "internalType": "uint256",
          "name": "id",
          "type": "uint256"
        },
        {
          "internalType": "string",
          "name": "name",
          "type": "string"
        },
        {
          "internalType": "uint256",
          "name": "price",
          "type": "uint256"
        },
        {
          "internalType": "address payable",
          "name": "instructor",
          "type": "address"
        }
      ],
      "stateMutability": "view",
      "type": "function"
    },
    {
      "inputs": [
        {
          "internalType": "uint256",
          "name": "_courseId",
          "type": "uint256"
        }
      ],
      "name": "getCoursePrice",
      "outputs": [
        {
          "internalType": "uint256",
          "name": "",
          "type": "uint256"
        }
      ],
      "stateMutability": "view",
      "type": "function"
    },
    {
      "inputs": [
        {
          "internalType": "address",
          "name": "_user",
          "type": "address"
        },
        {
          "internalType": "uint256",
          "name": "_courseId",
          "type": "uint256"
        }
      ],
      "name": "hasAccess",
      "outputs": [
        {
          "internalType": "bool",
          "name": "",
          "type": "bool"
        }
      ],
      "stateMutability": "view",
      "type": "function"
    },
    {
      "inputs": [
        {
          "internalType": "uint256",
          "name": "_courseId",
          "type": "uint256"
        }
      ],
      "name": "purchaseCourse",
      "outputs": [],
      "stateMutability": "payable",
      "type": "function"
    }
  ],
  "bytecode": "0x608060405260016002553480156200001657600080fd5b506200005e6040518060800160405280604581526020016200199860459139662aa1efb94e00007332962cd462a8b1bb0ade5299eb218969760db2326200018060201b60201c565b620000a56040518060600160405280603e81526020016200195a603e9139662386f26fc10000734b15d5a2b926417fc0507e6e0a23db3faef2cd526200018060201b60201c565b620000ec604051806060016040528060408152602001620019dd6040913966354a6ba7a180007325ede2fe525a1f05b0a352b53c0a1e3e7926a9646200018060201b60201c565b620001336040518060600160405280603e8152602001620018e3603e913966470de4df8200007371edea36b50284cf251a874eda38bda96dfa81ac6200018060201b60201c565b6200017a60405180606001604052806039815260200162001921603991396658d15e176280007352e51cb16957c220f58d3334eba9225a93f7292d6200018060201b60201c565b620007f7565b60006002549050600260008154809291906200019c90620002de565b919050555060405180608001604052808281526020018581526020018481526020018373ffffffffffffffffffffffffffffffffffffffff168152506000808381526020019081526020016000206000820151816000015560208201518160010190816200020b91906200059b565b506040820151816002015560608201518160030160006101000a81548173ffffffffffffffffffffffffffffffffffffffff021916908373ffffffffffffffffffffffffffffffffffffffff1602179055509050507f2b0b58380bf6f949f0aca71a822ab1851a18953049290acdb2bba7ffa989e98381858585604051620002979493929190620007a3565b60405180910390a150505050565b7f4e487b7100000000000000000000000000000000000000000000000000000000600052601160045260246000fd5b6000819050919050565b6000620002eb82620002d4565b91507fffffffffffffffffffffffffffffffffffffffffffffffffffffffffffffffff820362000320576200031f620002a5565b5b600182019050919050565b600081519050919050565b7f4e487b7100000000000000000000000000000000000000000000000000000000600052604160045260246000fd5b7f4e487b7100000000000000000000000000000000000000000000000000000000600052602260045260246000fd5b60006002820490506001821680620003ad57607f821691505b602082108103620003c357620003c262000365565b5b50919050565b60008190508160005260206000209050919050565b60006020601f8301049050919050565b600082821b905092915050565b6000600883026200042d7fffffffffffffffffffffffffffffffffffffffffffffffffffffffffffffffff82620003ee565b620004398683620003ee565b95508019841693508086168417925050509392505050565b6000819050919050565b60006200047c620004766200047084620002d4565b62000451565b620002d4565b9050919050565b6000819050919050565b62000498836200045b565b620004b0620004a78262000483565b848454620003fb565b825550505050565b600090565b620004c7620004b8565b620004d48184846200048d565b505050565b5b81811015620004fc57620004f0600082620004bd565b600181019050620004da565b5050565b601f8211156200054b576200051581620003c9565b6200052084620003de565b8101602085101562000530578190505b620005486200053f85620003de565b830182620004d9565b50505b505050565b600082821c905092915050565b6000620005706000198460080262000550565b1980831691505092915050565b60006200058b83836200055d565b9150826002028217905092915050565b620005a6826200032b565b67ffffffffffffffff811115620005c257620005c162000336565b5b620005ce825462000394565b620005db82828562000500565b600060209050601f831160018114620006135760008415620005fe578287015190505b6200060a85826200057d565b8655506200067a565b601f1984166200062386620003c9565b60005b828110156200064d5784890151825560018201915060208501945060208101905062000626565b868310156200066d578489015162000669601f8916826200055d565b8355505b6001600288020188555050505b505050505050565b6200068d81620002d4565b82525050565b600082825260208201905092915050565b60005b83811015620006c4578082015181840152602081019050620006a7565b60008484015250505050565b6000601f19601f8301169050919050565b6000620006ee826200032b565b620006fa818562000693565b93506200070c818560208601620006a4565b6200071781620006d0565b840191505092915050565b600073ffffffffffffffffffffffffffffffffffffffff82169050919050565b6000620007636200075d620007578462000722565b62000451565b62000722565b9050919050565b6000620007778262000742565b9050919050565b60006200078b826200076a565b9050919050565b6200079d816200077e565b82525050565b6000608082019050620007ba600083018762000682565b8181036020830152620007ce8186620006e1565b9050620007df604083018562000682565b620007ee606083018462000792565b95945050505050565b6110dc80620008076000396000f3fe6080604052600436106100705760003560e01c806382216fbd1161004e57806382216fbd1461011857806396f979d214610143578063c6530e4114610183578063cd131938146101c057610070565b8063146233f21461007557806316bc73ed146100b25780637e2dcf6e146100db575b600080fd5b34801561008157600080fd5b5061009c6004803603810190610097919061083e565b6101dc565b6040516100a99190610899565b60405180910390f35b3480156100be57600080fd5b506100d960048036038101906100d49190610a38565b61020b565b005b3480156100e757600080fd5b5061010260048036038101906100fd9190610aa7565b61032a565b60405161010f9190610ae3565b60405180910390f35b34801561012457600080fd5b5061012d610349565b60405161013a9190610ae3565b60405180910390f35b34801561014f57600080fd5b5061016a60048036038101906101659190610aa7565b61034f565b60405161017a9493929190610b8c565b60405180910390f35b34801561018f57600080fd5b506101aa60048036038101906101a5919061083e565b610427565b6040516101b79190610899565b60405180910390f35b6101da60048036038101906101d59190610aa7565b61048f565b005b60016020528160005260406000206020528060005260406000206000915091509054906101000a900460ff1681565b600060025490506002600081548092919061022590610c07565b919050555060405180608001604052808281526020018581526020018481526020018373ffffffffffffffffffffffffffffffffffffffff168152506000808381526020019081526020016000206000820151816000015560208201518160010190816102929190610e5b565b506040820151816002015560608201518160030160006101000a81548173ffffffffffffffffffffffffffffffffffffffff021916908373ffffffffffffffffffffffffffffffffffffffff1602179055509050507f2b0b58380bf6f949f0aca71a822ab1851a18953049290acdb2bba7ffa989e9838185858560405161031c9493929190610f82565b60405180910390a150505050565b6000806000838152602001908152602001600020600201549050919050565b60025481565b600060205280600052604060002060009150905080600001549080600101805461037890610c7e565b80601f01602080910402602001604051908101604052809291908181526020018280546103a490610c7e565b80156103f15780601f106103c6576101008083540402835291602001916103f1565b820191906000526020600020905b8154815290600101906020018083116103d457829003601f168201915b5050505050908060020154908060030160009054906101000a900473ffffffffffffffffffffffffffffffffffffffff16905084565b6000600160008473ffffffffffffffffffffffffffffffffffffffff1673ffffffffffffffffffffffffffffffffffffffff168152602001908152602001600020600083815260200190815260200160002060009054906101000a900460ff16905092915050565b6000806000838152602001908152602001600020604051806080016040529081600082015481526020016001820180546104c890610c7e565b80601f01602080910402602001604051908101604052809291908181526020018280546104f490610c7e565b80156105415780601f1061051657610100808354040283529160200191610541565b820191906000526020600020905b81548152906001019060200180831161052457829003601f168201915b50505050508152602001600282015481526020016003820160009054906101000a900473ffffffffffffffffffffffffffffffffffffffff1673ffffffffffffffffffffffffffffffffffffffff1673ffffffffffffffffffffffffffffffffffffffff1681525050905080604001513410156105f3576040517f08c379a00000000000000000000000000000000000000000000000000000000081526004016105ea9061101a565b60405180910390fd5b600160003373ffffffffffffffffffffffffffffffffffffffff1673ffffffffffffffffffffffffffffffffffffffff168152602001908152602001600020600083815260200190815260200160002060009054906101000a900460ff1615610691576040517f08c379a000000000000000000000000000000000000000000000000000000000815260040161068890611086565b60405180910390fd5b806060015173ffffffffffffffffffffffffffffffffffffffff166108fc349081150290604051600060405180830381858888f193505050501580156106db573d6000803e3d6000fd5b5060018060003373ffffffffffffffffffffffffffffffffffffffff1673ffffffffffffffffffffffffffffffffffffffff168152602001908152602001600020600084815260200190815260200160002060006101000a81548160ff0219169083151502179055503373ffffffffffffffffffffffffffffffffffffffff167fe5ad1c2d1ba3b171c8cd1cab50ec342a17e4c839c0562afe6328e29c7f38385e8360405161078a9190610ae3565b60405180910390a25050565b6000604051905090565b600080fd5b600080fd5b600073ffffffffffffffffffffffffffffffffffffffff82169050919050565b60006107d5826107aa565b9050919050565b6107e5816107ca565b81146107f057600080fd5b50565b600081359050610802816107dc565b92915050565b6000819050919050565b61081b81610808565b811461082657600080fd5b50565b60008135905061083881610812565b92915050565b60008060408385031215610855576108546107a0565b5b6000610863858286016107f3565b925050602061087485828601610829565b9150509250929050565b60008115159050919050565b6108938161087e565b82525050565b60006020820190506108ae600083018461088a565b92915050565b600080fd5b600080fd5b6000601f19601f8301169050919050565b7f4e487b7100000000000000000000000000000000000000000000000000000000600052604160045260246000fd5b610907826108be565b810181811067ffffffffffffffff82111715610926576109256108cf565b5b80604052505050565b6000610939610796565b905061094582826108fe565b919050565b600067ffffffffffffffff821115610965576109646108cf565b5b61096e826108be565b9050602081019050919050565b82818337600083830152505050565b600061099d6109988461094a565b61092f565b9050828152602081018484840111156109b9576109b86108b9565b5b6109c484828561097b565b509392505050565b600082601f8301126109e1576109e06108b4565b5b81356109f184826020860161098a565b91505092915050565b6000610a05826107aa565b9050919050565b610a15816109fa565b8114610a2057600080fd5b50565b600081359050610a3281610a0c565b92915050565b600080600060608486031215610a5157610a506107a0565b5b600084013567ffffffffffffffff811115610a6f57610a6e6107a5565b5b610a7b868287016109cc565b9350506020610a8c86828701610829565b9250506040610a9d86828701610a23565b9150509250925092565b600060208284031215610abd57610abc6107a0565b5b6000610acb84828501610829565b91505092915050565b610add81610808565b82525050565b6000602082019050610af86000830184610ad4565b92915050565b600081519050919050565b600082825260208201905092915050565b60005b83811015610b38578082015181840152602081019050610b1d565b60008484015250505050565b6000610b4f82610afe565b610b598185610b09565b9350610b69818560208601610b1a565b610b72816108be565b840191505092915050565b610b86816109fa565b82525050565b6000608082019050610ba16000830187610ad4565b8181036020830152610bb38186610b44565b9050610bc26040830185610ad4565b610bcf6060830184610b7d565b95945050505050565b7f4e487b7100000000000000000000000000000000000000000000000000000000600052601160045260246000fd5b6000610c1282610808565b91507fffffffffffffffffffffffffffffffffffffffffffffffffffffffffffffffff8203610c4457610c43610bd8565b5b600182019050919050565b7f4e487b7100000000000000000000000000000000000000000000000000000000600052602260045260246000fd5b60006002820490506001821680610c9657607f821691505b602082108103610ca957610ca8610c4f565b5b50919050565b60008190508160005260206000209050919050565b60006020601f8301049050919050565b600082821b905092915050565b600060088302610d117fffffffffffffffffffffffffffffffffffffffffffffffffffffffffffffffff82610cd4565b610d1b8683610cd4565b95508019841693508086168417925050509392505050565b6000819050919050565b6000610d58610d53610d4e84610808565b610d33565b610808565b9050919050565b6000819050919050565b610d7283610d3d565b610d86610d7e82610d5f565b848454610ce1565b825550505050565b600090565b610d9b610d8e565b610da6818484610d69565b505050565b5b81811015610dca57610dbf600082610d93565b600181019050610dac565b5050565b601f821115610e0f57610de081610caf565b610de984610cc4565b81016020851015610df8578190505b610e0c610e0485610cc4565b830182610dab565b50505b505050565b600082821c905092915050565b6000610e3260001984600802610e14565b1980831691505092915050565b6000610e4b8383610e21565b9150826002028217905092915050565b610e6482610afe565b67ffffffffffffffff811115610e7d57610e7c6108cf565b5b610e878254610c7e565b610e92828285610dce565b600060209050601f831160018114610ec55760008415610eb3578287015190505b610ebd8582610e3f565b865550610f25565b601f198416610ed386610caf565b60005b82811015610efb57848901518255600182019150602085019450602081019050610ed6565b86831015610f185784890151610f14601f891682610e21565b8355505b6001600288020188555050505b505050505050565b6000610f48610f43610f3e846107aa565b610d33565b6107aa565b9050919050565b6000610f5a82610f2d565b9050919050565b6000610f6c82610f4f565b9050919050565b610f7c81610f61565b82525050565b6000608082019050610f976000830187610ad4565b8181036020830152610fa98186610b44565b9050610fb86040830185610ad4565b610fc56060830184610f73565b95945050505050565b7f496e73756666696369656e74207061796d656e74000000000000000000000000600082015250565b6000611004601483610b09565b915061100f82610fce565b602082019050919050565b6000602082019050818103600083015261103381610ff7565b9050919050565b7f416c726561647920707572636861736564000000000000000000000000000000600082015250565b6000611070601183610b09565b915061107b8261103a565b602082019050919050565b6000602082019050818103600083015261109f81611063565b905091905056fea26469706673582212204dc61bb31fd98167427f370647f74732b8b36cb7d70b4ccec628dc167ceef1ba64736f6c63430008130033416476616e63656420507974686f6e2050726f6772616d6d696e673a204d6173746572696e6720507974686f6e20666f72204461746120536369656e63654d616368696e65204c6561726e696e6720412d5a3a2048616e64732d4f6e20507974686f6e2026205220496e204461746120536369656e6365436f6d70726568656e7369766520446174612053747275637475726573202620416c676f726974686d7320436f757273653a20432b2b2045646974696f6e446174612053747275637475726573202620416c676f726974686d73204d61737465727920696e204a6176613a2046726f6d2042617369637320746f20416476616e63656452656163742e6a732050726f66657373696f6e616c20426f6f7463616d703a204275696c64696e67204d6f6465726e20576562204170706c69636174696f6e73",
  "linkReferences": {},
  "deployedLinkReferences": {}
}